:1000000000010020C1000000ED000000F100000030
:10001000F5000000F9000000FD00000000000000F5
:1000200000000000000000000000000001010000CE
:100030000501000000000000090100000D010000A2
:100040001101000011010000110100001101000068
:100050001101000011010000110100001101000058
:100060001101000011010000110100001101000048
:100070001101000015010000190100001D01000020
:100080002101000025010000290100002D010000D0
:1000900031010000350100000000000000000000F8
:1000A000390100003D010000410100000000000096
:1000B00045010000490100004D0100005101000010
:1000C00000B583B0074B019304E0019B1A1D019218
:1000D00000221A60019A044B9A42F6D300F08EFB7C
:1000E000FEE7C0460000002020000020FEE7C046DA
:1000F000FEE7C046FEE7C046FEE7C046FEE7C04654
:10010000FEE7C046FEE7C046FEE7C046FEE7C04643
:10011000FEE7C046FEE7C046FEE7C046FEE7C04633
:10012000FEE7C046FEE7C046FEE7C046FEE7C04623
:10013000FEE7C046FEE7C046FEE7C046FEE7C04613
:10014000FEE7C046FEE7C046FEE7C046FEE7C04603
:10015000FEE7C04682B00190044B1A68019B9B00E9
:10016000D3181B68180002B07047C046A0210000D9
:1001700082B00190044B1A68019B9B00D3181B6846
:10018000180002B07047C046A421000000B585B039
:10019000019000910099019800F042FF031C194959
:1001A000181C00F073FD031C03931749039800F01B
:1001B0004FFD031E09D01549039800F031FF031CC1
:1001C0000393134B02221A6012E01049039800F0C7
:1001D0003FFD031E09D00C49039800F021FF031CCA
:1001E00003930B4B01221A6002E0094B00221A60B4
:1001F000039801F029F803000293029B180005B050
:1002000000BDC04600247449000020410000C842DF
:100210000400002010B586B00190019AE123D904B2
:10022000100000F00DFC03000493019A049BE121EF
:10023000C9044B43D21AF0235903100000F076FB97
:1002400003000393049B092B11D9049A13009B000C
:100250009B185B001C00039B0A21180000F066FB42
:100260000300E31805930A4B01221A600BE0049B7C
:10027000092B08D8049B64225A43039BD318059387
:10028000034B02221A60059B180006B010BDC04641
:100290000400002000B585B00190019B002B02D125
:1002A0000023039306E00199F023580300F0C8FBF4
:1002B00003000393034B00221A60039B180005B050
:1002C00000BDC0460400002030B585B0019000910B
:1002D0000021019800F0ACFC031E02D00023039320
:1002E00026E08E21C905009800F09AFE031C181C18
:1002F00001F09AFD244A254B01F01CFB03000C0081
:1003000025001C002249019800F08AFE031C181CDD
:1003100001F08AFD02000B002000290000F0F4FF2C
:1003200003000C001800210001F0D2FD031C039310
:100330001849039800F08CFC031E09D01649039855
:1003400000F06EFE031C0393144B02221A6012E0AD
:100350001149039800F07CFC031E09D00D49039855
:1003600000F05EFE031C03930C4B01221A6002E0B6
:100370000A4B00221A60039800F066FF0300029304
:10038000029B180005B030BDCDCCCCCCCCCC0C4001
:1003900000007A44000020410000C8420400002010
:1003A00084B00190019B092B23D8019B9A00144B28
:1003B000D3181B689F463F2303931DE00623039336
:1003C0001AE05B23039317E04F23039314E06623A3
:1003D000039311E06D2303930EE07D2303930BE061
:1003E0000723039308E07F23039305E06F23039320
:1003F00002E000230393C046039B180004B070473B
:100400002420000084B00190019B042B14D8019B90
:100410009A000D4BD3181B689F465E2303930EE092
:10042000782303930BE00C23039308E058230393F2
:1004300005E03923039302E000230393C046039BA6
:10044000180004B07047C0464C20000086B00390EE
:10045000029101920093029B1B020293019B1B04D9
:100460000193009B1B060093039A029BD218019BE9
:10047000D218009BD3180593059B180006B070474F
:1004800070B58AB0039002910192029B0A21180074
:1004900000F0BCFB0B000893029B6421180000F0E5
:1004A000B5FB0B000A21180000F0CAFA03000793FD
:1004B000029B6421180000F0C3FA03000693019B1D
:1004C000012B03D180231B02099308E0019B022B1F
:1004D00003D180231B04099301E000230993089BA7
:1004E0001800FFF75DFF0400079B1800FFF758FF97
:1004F0000500069B1800FFF753FF0600039B18003A
:10050000FFF780FF0300320029002000FFF79EFF65
:100510000200099BD3180593034B1B68059A1A60C8
:10052000C0460AB070BDC046A82100000D4B1B6834
:1005300000221A600B4B1B680C3300221A600A4B16
:100540001B68002B04D1094B1B68094A1A6007E09D
:10055000054B1B68012B03D1044B1B68054A1A602D
:10056000C0467047A021000000000020A821000024
:100570003F3FBF5E3F3FBF7884B00190094B1B688F
:1005800010331B680393039A019B1A411300012245
:1005900013400293029B013B5A425341DBB21800C5
:1005A00004B07047A021000084B00190094B1B6883
:1005B0000C331B680393039A019B1A411300012219
:1005C00013400293029B013B5A425341DBB2180095
:1005D00004B07047A421000000B583B06B4605331A
:1005E00000221A706B46063300221A706B460733DE
:1005F00000221A700220FFF7D7FF031E09D0022045
:10060000FFF7B6FD02006B460533511E8A411A7092
:1006100029E00120FFF7C8FF031E09D00120FFF7E2
:10062000A7FD02006B460633511E8A411A701AE07C
:100630000020FFF7B9FF031E09D00020FFF798FD47
:1006400002006B460733511E8A411A700BE06B465D
:10065000053300221A706B46063300221A706B466F
:10066000073300221A70554B1B7801225340DBB22E
:10067000002B17D06B4607331B78002B0BD0504B49
:100680001B685A1C4E4B1A604D4B1B68042B02D141
:100690004B4B00221A606B4606331B78002B01D0AF
:1006A000FFF744FF6B4605331B78002B02D0434B0A
:1006B00001221A70414B1B78002B00D17AE06B4667
:1006C00007331B78002B04D03E4B1B685A1C3D4B54
:1006D0001A603C4B1B68012B17D004D3022B26D089
:1006E000032B36D044E06B4606331B78002B3AD000
:1006F000354B1B685A1C344B1A60334B1B68092B53
:1007000031D9314B00221A602DE06B4606331B783D
:10071000002B2AD02D4B1B685A1C2C4B1A602B4BDC
:100720001B68092B21D9294B00221A601DE06B465A
:1007300006331B78002B1AD0254B1B685A1C244B00
:100740001A60234B1B68022B11D9214B00221A601F
:100750000DE01A4B00221A701A4B00221A60184B37
:1007600000221A6004E0C04602E0C04600E0C04635
:10077000164B1A6813009B009B185B001900144B62
:100780001B6864225343CA180F4B1B68D31800938D
:10079000009A13009B009B185B001A000D4B1A6017
:1007A0000D4B00221A6000990B4B1B681A000420A5
:1007B000FFF766FEC04603B000BDC046180000202B
:1007C00000000020080000200C0000201400002081
:1007D0001C000020100000200400002082B0002334
:1007E000019302E0019B01330193019B024A934272
:1007F000F8DDC04602B070471F4E000010B584B04F
:10080000454B464A1A60FFF7E7FE454B1B7801222D
:100810005340DBB2002BF6D0424B1B68012B26D095
:1008200004D3022B39D0032B58D074E00020FFF7FB
:10083000A3FE031E68D00020FFF78CFC0300180005
:1008400000F024FD041C344B1B68180000F01EFD52
:10085000031C191C201CFFF799FC03000393039948
:10086000314B1B681A000020FFF70AFE4CE0032002
:10087000FFF782FE031E49D00320FFF76BFC030045
:100880001800FFF7C7FC030002930299264B1B6870
:100890001A000120FFF7F4FD38E00120FFF76CFE9D
:1008A000031E35D00120FFF755FC0300180000F0AF
:1008B000EDFC041C184B1B68180000F0E7FC031C3F
:1008C000191C201CFFF700FD030001930199164B32
:1008D0001B681A000220FFF7D3FD19E00220FFF782
:1008E0004BFE031E16D00220FFF734FC0300180055
:1008F000FFF7D0FC0300009300990B4B1B681A0014
:100900000320FFF7BDFD05E0C0467CE7C0467AE75F
:10091000C04678E7C04676E710000020580800007F
:1009200018000020000000200400002000224308DE
:100930008B4274D303098B425FD3030A8B4244D3A7
:10094000030B8B4228D3030C8B420DD3FF220902E9
:1009500012BA030C8B4202D31212090265D0030BA8
:100960008B4219D300E0090AC30B8B4201D3CB039E
:10097000C01A5241830B8B4201D38B03C01A5241E0
:10098000430B8B4201D34B03C01A5241030B8B42E2
:1009900001D30B03C01A5241C30A8B4201D3CB02CD
:1009A000C01A5241830A8B4201D38B02C01A5241B2
:1009B000430A8B4201D34B02C01A5241030A8B42B5
:1009C00001D30B02C01A5241CDD2C3098B4201D3CD
:1009D000CB01C01A524183098B4201D38B01C01A4B
:1009E000524143098B4201D34B01C01A52410309C2
:1009F0008B4201D30B01C01A5241C3088B4201D371
:100A0000CB00C01A524183088B4201D38B00C01A1D
:100A1000524143088B4201D34B00C01A5241411A44
:100A200000D20146524110467047FFE701B5002051
:100A300000F0F0F802BDC0460029F7D076E7704715
:100A400003460B437FD4002243088B4274D303092F
:100A50008B425FD3030A8B4244D3030B8B4228D3D0
:100A6000030C8B420DD3FF22090212BA030C8B42F6
:100A700002D31212090265D0030B8B4219D300E096
:100A8000090AC30B8B4201D3CB03C01A5241830B1B
:100A90008B4201D38B03C01A5241430B8B4201D3CB
:100AA0004B03C01A5241030B8B4201D30B03C01AF4
:100AB0005241C30A8B4201D3CB02C01A5241830A6E
:100AC0008B4201D38B02C01A5241430A8B4201D39D
:100AD0004B02C01A5241030A8B4201D30B02C01AC7
:100AE0005241CDD2C3098B4201D3CB01C01A52412E
:100AF00083098B4201D38B01C01A524143098B42B7
:100B000001D34B01C01A524103098B4201D30B019F
:100B1000C01A5241C3088B4201D3CB00C01A5241C4
:100B200083088B4201D38B00C01A524143088B4289
:100B300001D34B00C01A5241411A00D20146524122
:100B4000104670475DE0CA0F00D04942031000D341
:100B50004042534000229C4603098B422DD3030A96
:100B60008B4212D3FC22890112BA030A8B420CD3A6
:100B7000890192118B4208D3890192118B4204D3CF
:100B800089013AD0921100E08909C3098B4201D34F
:100B9000CB01C01A524183098B4201D38B01C01A89
:100BA000524143098B4201D34B01C01A5241030900
:100BB0008B4201D30B01C01A5241C3088B4201D3AF
:100BC000CB00C01A524183088B4201D38B00C01A5C
:100BD0005241D9D243088B4201D34B00C01A524133
:100BE000411A00D20146634652415B10104601D3C0
:100BF0004042002B00D54942704763465B1000D34A
:100C0000404201B5002000F005F802BD0029F8D0EF
:100C100016E770477047C0468446081C6146FFE7E8
:100C20001FB500F0B9F9002801D40021C8421FBD4A
:100C300010B500F045F94042013010BD10B500F08C
:100C4000ABF9002801DB002010BD012010BDC0461B
:100C500010B500F0A1F9002801DD002010BD012031
:100C600010BDC04610B500F053F9002801DC00208B
:100C700010BD012010BDC04610B500F049F9002894
:100C800001DA002010BD012010BDC046F0B5564667
:100C900044465F464D46F0B444024600C70F83B059
:100CA0008846650A360EBA463DD0FF2E22D0002374
:100CB000EC00802599469B46ED0425437F3E434644
:100CC0005C025800DB0F640A000E984636D0FF28FD
:100CD00030D080230021E400DB041C437F38301A2D
:100CE0000190484642460843724E800030587A4090
:100CF00013008746002D44D108239946063B9B46A6
:100D0000DDE70122FF2000241A406402C305640AC3
:100D1000D2071C431443200003B03CBC90469946C4
:100D2000A246AB46F0BD002D20D104239946033BDB
:100D30009B46C4E7002C17D1022102E0002C0AD107
:100D40000121321A01924A4643460A435A48920008
:100D500082587B409746200001F046F9431F7630C9
:100D60009C4040420021BAE70321B8E7280001F087
:100D70003BF9431F9D4000237630464299469B46EF
:100D80009DE70C239946093B9B4698E78024002267
:100D9000E403FF20B9E70024C2468B465A46534677
:100DA000022AAED0032A7DD0012A31D101220020AF
:100DB0001A400024A9E70122101A1B2856DD1A4008
:100DC00000200024A1E78023DB031D424BD18023B8
:100DD000DB032B435C02640A3A00FF2095E76D01B8
:100DE0006001854230D2019A0024013A01921B220F
:100DF0000127290064006D00002901DBA84201D809
:100E00002D1A3C43013A002AF3D16A1E95412C4326
:100E100001987F300028CEDD620704D00F222240E7
:100E2000042A00D00434220103D5244A0198144036
:100E30008030FE2800DD64E70122A401640AC0B20C
:100E40001A4062E72C00A9E72D1A1A220124CFE7E5
:100E50006B02BCD500248023DB031C436402640ABC
:100E60004246FF2051E71C42B3D1F4E72100202283
:100E7000C140101A8440621E94410C43620704D0A2
:100E80000F222240042A00D00434620104D501223A
:100E900001201A40002438E70122A401640A1A4004
:100EA000002032E78023DB031C436402640A5246BD
:100EB000FF202AE760200000A0200000FFFFFFF7CE
:100EC000430270B542004C005D0AC30F4802120E87
:100ED000460A240EC90FFF2A0FD0FF2C11D0012083
:100EE000A24200D070BDB542FCD18B420DD0002A89
:100EF000F8D12800431E9841F4E70120002DF1D1DC
:100F0000EBE70120002EEDD1E9E70020EAE7C0463B
:100F10004302F0B542005D0AC30F4802440A48008C
:100F2000120E000EC90FFF2A1FD0FF2822D0002A60
:100F300009D16E426E4100280FD1002C0DD1002046
:100F4000002D09D005E0002801D1002C01D08B42F2
:100F500013D0584201231843F0BD002EF7D0484269
:100F60004141012049420843F6E7002DDDD002202F
:100F70004042F1E7002CDAD0F9E78242E9DC04DBF9
:100F8000A542E6D80020A542E6D2584243410120BE
:100F90005B421843E0E7C0464302F0B542004C0014
:100FA0005E0AC30F4802120E450A240EC90FFF2A1B
:100FB00017D0FF2C19D0002A0BD170427041002CA1
:100FC00017D0002807D04842414101204942084338
:100FD000F0BD002C13D08B4214D05842012318438B
:100FE000F6E70220002EF3D1E3E70220002DEFD137
:100FF000E1E7002DE5D10020002EE9D0EDE7002D3E
:10100000E9D1EAE7A242E8DC04DBAE42E5D8002001
:10101000AE42DDD25842434101205B421843D7E73C
:10102000F0B557464E4645464300E0B44602884672
:10103000760A1F0EC40F002F47D0FF2F25D00023A4
:1010400080259A469946F600ED042E437F3F43469D
:1010500042465D02D20F5B006D0A1B0E904640D0E7
:10106000FF2B39D080220020ED00D20415437F3BB6
:10107000FB1842465746591C62408C4607430F2FC7
:101080005CD86F49BF00C9598F46002E45D108234F
:101090009A46063B9946DAE7424602282DD00328B5
:1010A00000D1C3E0012800D0A2E0002500260240C4
:1010B000D4B27602ED05760A2E43E40726433000CB
:1010C0001CBC90469946A246F0BD002E1AD10423BE
:1010D0009A46033B9946BAE72A00511E8A41901C62
:1010E000C6E70120002DC3D0280000F07DFF431F7C
:1010F00076309D4043420020BAE70124FF2514408A
:101100000026D6E7300000F06FFF431F9E4000230B
:10111000763047429A46994699E70C239A46093B0E
:10112000994694E780260024F603FF25C1E73500A1
:101130004846B2E7350022004846AEE72904090CCC
:101140000800370C3604360C2C0C79437043674387
:101150007443060C64183619B14203D98021490240
:10116000884647440004000C310409188D01681EAC
:101170008541890E2943350CED19AD010D43290137
:1011800004D5012369081D4063460D4319007F31D2
:10119000002925DD680704D00F202840042800D04E
:1011A0000435280103D5274980330D401900FE2955
:1011B000A3DC0124AD016E0A1440CDB279E7802092
:1011C000C003064207D0054205D128434602760AED
:1011D0004446FF256DE706437602760AFF2568E759
:1011E0000124611A1B2905DD14400025002660E753
:1011F0006346CBE72E002023CE40591A8D406B1E4C
:101200009D412E43730704D00F233340042B00D09D
:101210000436730104D5012401251440002648E753
:101220000124B601760A1440002542E780260124F5
:10123000F6032E437602760A1440FF2539E7C046AE
:10124000E0200000FFFFFFF74302590A4300C20FEE
:101250001B0E00207E2B0EDD9D2B0DDC802000045C
:101260000143952B0BDC9620C31AD9400B00584242
:10127000002A00D118007047034BD018FBE7963BBB
:1012800099400B00F3E7C046FFFFFF7F70B5041ED7
:1012900028D000F0A9FE9E231B1A962B0ADC96226A
:1012A000D21A94406202520AD8B25202520AC005BF
:1012B000104370BD992B18DC9922D21A9440114A20
:1012C0002240610704D00F210C40042C00D00432CE
:1012D000510103D50B4B1A409F231B1A9201520A4E
:1012E000D8B2E2E700200022DFE705222500121A2B
:1012F000B921D5402200C91A8A40541EA2412C00AF
:101300001443DCE7FFFFFFFBF0B556464D4644466D
:101310005F46F0B41D000E034C00CB0F87B00700F2
:1013200092468146360B640D98466AD06D4B9C42BE
:1013300035D08022430F12041343F6001E43C3002E
:101340009946694B00279C460023644402932B0373
:1013500068001B0BED0F51469B46400D009500D1D8
:1013600078E0604B98426CD05B46DA004B0F8021EE
:1013700009040B4313439B465346D9005A4B9C46E2
:10138000002360444246201A6A40924601901F435F
:101390000F2F00D9B0E05548BF00C05987463743EA
:1013A00000D088E0002399460233082700260293E4
:1013B000CDE74346B34649460093029B009A9246C6
:1013C000022B00D0BFE100215346012200268946AE
:1013D0001A40444B002136030C0D2405360B2643DE
:1013E000434C1B0526401E437600D2077608164361
:1013F0004846310007B03CBC90469946A246AB46F1
:10140000F0BD330003434FD0002E00D1BCE13000CB
:1014100000F0EAFD03000B3B1C2B00DDADE11D22BB
:101420000100D31A08393A008F408E40DA40B9469D
:101430001643304B00279C460023604444420293ED
:1014400085E753465A4613432CD1002300219B467F
:10145000023397E70B4320D05B46002B00D19EE17F
:10146000584600F0C1FD03000B3B1C2B00DD8FE153
:1014700002005946083A91408B461D21CB1A51462D
:10148000D9400B0059460B4351469B469140194B9E
:101490009C4660444042002374E7002300219B46A1
:1014A00001336FE703236DE70023994601330427D7
:1014B000002602934BE703230C27029347E7012200
:1014C000D51A382D00DCB0E153461A400021002324
:1014D000002689467EE700238026994600223603AF
:1014E000004B77E7FF07000001FCFFFF2021000011
:1014F000FFFF0F80F30300005E4500D972E100D1C9
:101500006DE1019B4D46013B0193002334000293A2
:101510005B461E020B0E1E430B020393330C9946CF
:1015200033041B0C494620000093FFF7FFF9009B92
:10153000370043430600494620009846FFF77CFAEF
:101540002C0C09040C43A04509D9E419731EA742C9
:1015500000D95CE1A04500D859E1023EE4194346B8
:10156000E41A49462000FFF7E1F90300009A80469B
:101570005343494620009B46FFF75EFA2A040904BC
:10158000120C0A4393450DD94346D219013B9742A9
:1015900000D93AE1934500D837E102235B429C46EB
:1015A000D219E0445B46D21A4346360433439B4685
:1015B0000399180C0B0C1D00059309045B46090CDC
:1015C0000C001B041B0C4443049159436B436843B8
:1015D0001B190D0CEB189C4203D980246402A4460D
:1015E00060441C0C09041B04090C20185D1882427D
:1015F00000D2DEE000D1D7E0161A029B9C465D1BAC
:10160000AC459B415B42F61AB74200D106E1494620
:101610003000FFF78BF9009B04004343494630003C
:101620009846FFF709FA2E0C09040E43B04509D974
:10163000F619631EB74200D9F3E0B04500D8F0E0D8
:10164000023CF6194346F31A494618000293FFF785
:101650006DF9009B06004343494602989846FFF700
:10166000EBF92D0409042D0C0D43A84509D9ED19FA
:10167000731EAF4200D9D6E0A84500D8D3E0023EA1
:10168000ED192404210043463143049E059A30009D
:10169000ED1A0B040C0C1B0C584366435343544384
:1016A0009A19030C9B189E4203D980225202944639
:1016B00064441A0C00041B04000C14191B18A542E6
:1016C00050D34DD001231943964A019B944663445D
:1016D000002B00DCF3E64A0709D00F220A40042A57
:1016E00005D00A1D8A42894149428B4411005A465D
:1016F000D20108D55A468C4B1A4093468022D2001C
:101700009446019B6344894A934200DD5BE65A4656
:10171000C908500708435602514601225B0581461D
:10172000360B5B0D0A4055E680231B031E4211D089
:101730005A461A420ED15E461E433603360B2A0025
:1017400089467B4B46E6032B00D1E1E0012BBBD160
:101750001A40BBE61E433603360B4246744B39E64D
:10176000002BB1D07D194A1EAF4252D91100A542BB
:10177000A8D1039A9A42A5D1A6E703003E00283BD0
:101780009E400023994654E600F02EFC203041E6AE
:1017900003005246283B9A400021934677E6504684
:1017A00000F022FC20305EE6029B0026AB4200D314
:1017B00023E7039E0299B44661448846B045B6418A
:1017C0005B467642F619B218013B0291974213D25A
:1017D00090424FD800D18EE0161A9B460DE78945FE
:1017E00000D28EE674084B46F60735005B081D43B1
:1017F0004B46DB0702938BE69742EDD10399029C9F
:10180000A142E5D93E1A9B46F7E69846CAE61E0075
:10181000A5E6AC423ED874D0110053E701214942FD
:1018200052E71C000EE71E002BE71F2D3CDC202397
:101830000A0058465B1B9840EA4099400243481E04
:1018400081415E461143EE404B0709D00F230B4008
:10185000042B05D00B00191D99429B415B42F618E1
:1018600033023CD55346012200211A4000260123B1
:101870008946AFE502235B429C46039CE344A446B1
:10188000029B63449846A045B6417642F6190293FE
:10189000B218B1E603988A1E41008142B6417642F1
:1018A000F619AD19039161E71F225242D31A5A4625
:1018B000DA401300202D29D040225846551BA8405D
:1018C0000143481E814107200B4318400026002891
:1018D00009D00F2200261A401900042ABBD10B00A0
:1018E00070077602360BDB08034399460122534604
:1018F0001A4000236EE502998D42BBD89B46002614
:101900007BE603989842C5D3110032E70020D7E761
:1019100080265B4636031E433603360B009A894603
:10192000034B57E5FF030000FFFFFFFEFE0700002B
:10193000FF070000F0B55F4656464D464446F0B4FA
:101940000D0399464E002B0B87B007009246804648
:101950009B46760DCC0F002E69D06D4B9E4235D044
:101960005B468022DD001204430F13432B439B464A
:10197000C3009846674B00279C46002366440193AA
:101980004A4615035000D20F53462D0B400D914689
:1019900000D176E05E4A90426CD080225B0F120448
:1019A00013435C4AED0094461D4353460022DB007E
:1019B000604449463618701C6140029017430F2F4F
:1019C00000D9AFE05448BF00C759BF465B461F432C
:1019D00000D088E000239B469846023308270193F5
:1019E000CEE74946022A6AD0032A00D109E2012A39
:1019F00000D0BBE111400022002300259046CCB26C
:101A000000212D030A0D12052D0B1543434A1B051A
:101A100015401D436D00E4076D082543404629002D
:101A200007B03CBC90469946A246AB46F0BD034386
:101A300052D05B46002B00D18AE1584600F0D4FA20
:101A400003000B3B1C2B00DD7BE11D22D31A3A0067
:101A500001005D46DA4008398D4013008F402B436A
:101A60009B46B8462E4B00279C46002360444642C6
:101A7000019385E752462A432CD1002500230222F8
:101A800097E752462A4321D0002D00D154E1280087
:101A900000F0AAFA03000B3B1C2B00DD46E11D21E0
:101AA000CB1A51460200D9405346083A954093401C
:101AB0000D431B4A944660444042002279E70124CA
:101AC00000220C40124B0025904699E70025002388
:101AD00001226EE703226CE700239B469846013300
:101AE000042701934CE703230C27019348E70023C5
:101AF0008025984600242D03054B81E75D4643462B
:101B0000019A6FE75D4643462100019A6AE7C046A5
:101B1000FF07000001FCFFFF60210000FFFF0F80B6
:101B2000F30300004246120C91461A0C94464246BA
:101B300017044A461B041B0C5A43604690464A460B
:101B400042431000039262461C003F0C7A437C43E0
:101B500042440192220C9246019A5244904506D981
:101B60008246802040028046C24450460390100CBA
:101B7000049048462404240C1204121905922A0CDD
:101B80002D042D0C68432C00824648467C4350436C
:101B90008146200C8046574357444744BA4503D9F1
:101BA000802040028046C144380C3F04B846484477
:101BB0002404240C01900498A04440440490584606
:101BC000000C814658460404200C82460700484613
:101BD0005F434C46434360466043644683465046F9
:101BE0004443380C8446E4186444A34203D9802358
:101BF0005B029C46E34448463F04230C3F0C24040C
:101C0000E419574668436F4384464D465046554352
:101C10004243380C814662444A445B44944503D9AC
:101C2000802040028446654403983F04834604981C
:101C30003F0C8446E344C345804140428246100441
:101C400084460198674484466744A344BC46A34540
:101C5000A4419946D44464428742BF41D44580415F
:101C6000E144A04699459B417F424042C844074316
:101C7000120CBA18A045A4415F423B0064422343C2
:101C8000D71843467D19DB0D6D021D435B465A0292
:101C9000059B1A43531E9A415B46DB0D1A4343468C
:101CA0005B021343EA0107D501225C08134023437A
:101CB000EA07029E13436D08574AB218002A4BDD0B
:101CC000580709D00F201840042805D0181D984245
:101CD0009B415B42ED180300E80104D54F4A1540D3
:101CE0008022D200B2184E48824200DDE7E601248D
:101CF000DB08680718436D02530580462D0B5B0D0A
:101D00000C407DE6802259461203114208D015424C
:101D100006D115432D0398462D0B4C46414B6FE6DB
:101D20005D4615432D032D0B3E4B69E603005546DA
:101D3000283B9D400023BCE6504600F055F920307A
:101D4000A8E60300283B9F400023BB46984689E64F
:101D500000F04AF9203073E60124A61A382E07DD78
:101D600000220C4000230025904649E6029EA3E78E
:101D70001F2E20DC20222C001800921BF0409440E3
:101D800093400443581E83411C43F540630709D028
:101D90000F232340042B05D023001C1D9C4292419D
:101DA0005242AD182B021FD5012400220C40012302
:101DB0000025904624E61F202C004042821AD44081
:101DC000202E1CD04022961BB5402B43581E834129
:101DD0000720234318400025002809D00F220025A2
:101DE0001A401C00042AD8D1230068076D022D0B6D
:101DF0000124DB08034398460C40002300E600253D
:101E0000E3E780220124120315432D0398462D0B8E
:101E10000C40044BF4E5C046FF030000FFFFFFFE4B
:101E2000FE070000FF0700004200120E511C430293
:101E3000C9B270B55D0AC40F012915DDE021890022
:101E40008C466D071B0B6244002128000D0D2D05EB
:101E50002B431C4D52052B40520813435B00E407F3
:101E60005B082343190070BD002A15D1002D1FD037
:101E7000280000F0B9F80A281DDC0B232A001B1AE1
:101E8000DA4013000200153295400F4A1B03121A64
:101E900052051B0B520DD7E7002D06D080221B0BDD
:101EA000120313436D07094ACEE7084A0023CBE724
:101EB00000220023C8E703000B3B9D402B000025B8
:101EC000E3E7C046FFFF0F8089030000FF07000023
:101ED0004B0070B55E0D0C03751C640A420F6D0556
:101EE0002243C90FC4006D0D012D2ADD3B4BF318B1
:101EF000FE2B1ADC002B42DD8001451EA841D200DA
:101F00001043620F0243500704D00F2010400428F2
:101F100000D004328020C004104021D00133FF2BB8
:101F200003D09201520ADBB201E0FF2300225202E9
:101F3000520ADB0513435B00C9075B080B4318001B
:101F400070BD002E07D01443EFD08020D200800453
:101F50000243FF23D7E722430023002A03D00522B0
:101F6000D208FF2B03D05202520ADBB2DFE7002A6D
:101F700032D08020C00302435202520AD7E7180031
:101F8000173014DB8020000402431E20C01A1F28D3
:101F90000FDC2500124BF3189D406E1EB5419A4090
:101FA0002B0013432200C2401A430023ABE7002357
:101FB000D5E702256D42EB1A1500DD40202809D037
:101FC000084BF3189A401443621E944122000023E8
:101FD0002A4398E70022F6E70022A8E780FCFFFFEB
:101FE00082FCFFFFA2FCFFFF1C2101231B0498427F
:101FF00001D3000C10391B0A984201D3000A08399A
:102000001B09984201D30009043902A2105C401850
:102010007047C046040302020101010100000000F4
:1020200000000000B6030000BC030000C203000073
:10203000C8030000CE030000D4030000DA03000050
:10204000E0030000E6030000EC0300001A040000B7
:1020500020040000260400002C04000032040000CC
:10206000DE0D0000020D0000C00D0000980D000004
:10207000C00D00008C0D0000C00D0000980D000088
:10208000020D0000020D00008C0D0000980D0000F4
:10209000440E0000440E0000440E0000C60D000077
:1020A000020D0000020D0000AC0D0000960D0000B6
:1020B000AC0D00008C0D0000AC0D0000960D000072
:1020C000020D0000020D00008C0D0000960D0000B6
:1020D000440E0000440E0000440E0000500E0000AC
:1020E0003C1100009A1000009A10000098100000A7
:1020F0002E1100002E110000241100009810000085
:102100002E110000241100002E1100009810000074
:10211000341100003411000034110000BE11000021
:10212000F8140000C6130000CC140000BC1300001B
:10213000CC140000D6140000CC140000BC13000026
:10214000C6130000C6130000D6140000BC13000024
:10215000B2130000B2130000B213000028170000F1
:10216000241B0000E4190000E4190000E21900003B
:10217000FC1A0000FC1A0000EE1A0000E219000030
:10218000FC1A0000EE1A0000FC1A0000E219000020
:10219000041B0000041B0000041B0000041D0000C1
:0C21A00000000040000000500000006043
:00000001FF
